:100000002BC04FC04EC04DC04CC04BC04AC049C0B1
:1000100048C047C046C035C344C043C042C041C0C9
:1000200040C000003A00370000003B0038000202E8
:1000300002010101010101010102010204804020CD
:10004000100804020108000001020304000000007F
:1000500000000000FF04620511241FBECFE5D2E0BE
:10006000DEBFCDBF20E0A6E6B0E001C01D92A639FC
:10007000B207E1F710E0A0E6B0E0E6EDFDE002C077
:1000800005900D92A636B107D9F710E0CBE2D0E08B
:1000900003C02197FE0168D5CA32D107D1F73BD3FF
:1000A0008EC6AECF4F925F926F927F928F929F9249
:1000B000AF92BF92DF92EF92FF920F931F93CF9375
:1000C000DF93EC018A019B01290166247724E42C4B
:1000D000812E922EA32EBB24F82CD02E409184008A
:1000E000442389F0A42FB0E0842D90E0BD0117D502
:1000F000E92E882D90E0BD0112D5F92E802F90E0D9
:10010000BD010DD5D92EA0918A00E0918500F09116
:10011000860080918700A81327C0CE0163E070E0BD
:10012000FED4E80FF91FA0918700AE0FBF2FB11DBD
:10013000EC92A0918800AE0FBF2FB11DFC92809170
:100140008900E80FF11DD082DF91CF911F910F91AF
:10015000FF90EF90DF90BF90AF909F908F907F9037
:100160006F905F904F900895CC0FDD1FCC0FDD1F77
:10017000EC0FFD1F032F112722273327902F442335
:1001800021F0842F90E0B801CAD4AE0FBF2FB11D6B
:100190009C93C9CF3FB7F8948091780090917900F3
:1001A000A0917A00B0917B0022B708B600FE05C08E
:1001B0002F3F19F00196A11DB11D3FBFBA2FA92FE6
:1001C000982F8827BC01CD01620F711D811D911DE3
:1001D00043E0660F771F881F991F4A95D1F708954E
:1001E000CF92DF92EF92FF920F931F93CF93DF9303
:1001F000CDB7DEB729970FB6F894DEBF0FBECDBFDF
:100200008091850090918600892B09F4A4C0C0904C
:100210008B00D0908C00E0908D00F0908E00BADFC3
:100220006C157D058E059F0548F4B4DF60938B0047
:1002300070938C0080938D0090938E00ABDF0091C3
:100240008B0010918C0020918D0030918E00601BEE
:10025000710B820B930B6C32714081059105B8F2E2
:10026000F89480918000909181009A838983E09135
:100270008500F0918600DF01119680818987909139
:100280007C0080919100992309F474C01B8298B37B
:10029000982B988798B3809589238F838F818C833F
:1002A000898587FF02C088858C8358856F81498541
:1002B0003C812B8189819A8158BB262F38BB00C095
:1002C00046FD252F68BB00C058BB362F28BB00C099
:1002D00045FD352F68BB00C058BB262F38BB00C07A
:1002E00044FD252F68BB00C058BB362F28BB00C07B
:1002F00043FD352F68BB00C058BB262F38BB00C05C
:1003000042FD252F68BB00C058BB362F28BB00C05C
:1003100041FD352F68BB00C058BB262F38BB00C03D
:1003200040FD252F68BB019758BB362F28BB4D9148
:1003300047FD352F68BB01F649873C832B839A83A1
:100340008983789427DF60938B0070938C0080936F
:100350008D0090938E0029960FB6F894DEBF0FBEE5
:10036000CDBFDF91CF911F910F91FF90EF90DF9064
:10037000CF900895E0918F00F09190009081982B9C
:1003800098879081809589238F838F818E8388E0E1
:100390008D8358856F8149853D812E8189819A8120
:1003A000508347FD252F2083262F3A9531F0441F97
:1003B000608300C000C000C0F3CF6083000038E05D
:1003C0004D91019769F7F0939000E0938F00498772
:1003D0003D832E83B4CFCF92DF92EF92FF92CF93E3
:1003E000DF936B017C01D6DEEB01C114D104E10483
:1003F000F10441F412C081E0C81AD108E108F10803
:10040000C851DC4FC7DE6C1B7D0B683E734068F340
:10041000C114D104E104F10471F7DF91CF91FF9091
:10042000EF90DF90CF9008952FB7F894609174000B
:100430007091750080917600909177002FBF08959C
:100440008F929F92AF92BF92CF92DF92EF92FF92E4
:10045000CF93DF934B015C01D0E0C0E06A01550F00
:10046000EE08FF0880917E0090917F00C817D907A1
:1004700050F4B501A401CE0115DEB2DEC701B6010C
:10048000AADF2196EFCFDF91CF91FF90EF90DF9021
:10049000CF90BF90AF909F908F90089587FF07C037
:1004A000E82FEF778AE08E1BE83008F08FEF90E0BE
:1004B000FC01EA5BFF4F3491FC01E65CFF4F2491A5
:1004C000FC01E25DFF4FE491EE23B9F0332329F004
:1004D0003130A1F480B78F7780BFF0E0EE0FFF1FBF
:1004E000E85DFF4FA591B4918FB7611117C0F894E3
:1004F000EC9120952E232C938FBF0895323019F460
:1005000080B78F7DE9CF333021F48FB58F778FBDE2
:10051000E4CF343011F78FB58F7DF9CFF894EC919B
:100520002E2BE9CFCF93DF9387FF07C0E82FEF771C
:100530008AE08E1BE83008F08FEF90E0FC01E65C6B
:10054000FF4F2491825D9F4FFC0184918823D1F05D
:1005500090E0880F991FFC01EE5DFF4FA591B491CB
:10056000FC01E85DFF4FC591D49161110EC09FB7AA
:10057000F8948C91E22FE0958E238C932881E223CE
:10058000E8839FBFDF91CF9108958FB7F894EC91E6
:10059000E22BEC938FBFF6CFCF9380916D009091BB
:1005A0006E00892B69F44AE050E06FEF70E080E064
:1005B00090E046DF60E089E071DF61E08AE06EDFB5
:1005C00080916D0090916E00019769F44AE050E0CF
:1005D00060E070E08FEF90E033DF61E089E05EDFA4
:1005E00061E08AE05BDFC0916D008AE090E078D244
:1005F000C81721F06C2F8AE090E07AD2C0916E008B
:100600008BE090E06DD2C81729F06C2F8BE090E062
:10061000CF916EC2CF910895CF93DF9361E087E0D1
:1006200081DF60E087E03ADFC3E0D0E041E050E006
:100630006FEF7FEF8FEF90E003DF6AE070E080E024
:1006400090E0C9DE41E050E060E070E0CB01F8DE10
:100650006AE070E080E090E0BEDE219739F761E06B
:1006600087E01CDF60E087E05DDFDEDE60936F0027
:10067000709370008093710090937200DF91CF911E
:100680008BCF1F920F920FB60F9211242F933F938F
:100690008F939F93AF93BF93809174009091750057
:1006A000A0917600B09177003091730026E0230F7F
:1006B0002D3768F129E8230F0396A11DB11D209362
:1006C00073008093740090937500A0937600B093AC
:1006D00077008091780090917900A0917A00B09194
:1006E0007B000196A11DB11D809378009093790045
:1006F000A0937A00B0937B00BF91AF919F918F91AF
:100700003F912F910F900FBE0F901F90189502965A
:10071000A11DB11DD4CF83E080BF83BF789499B76A
:10072000916099BF91E09FBD8EBD86E886B981E852
:100730008FBD89E08EBD8FE790E09BBD8ABD61E0F3
:1007400089E0F0DE61E08AE0EDDE60E088E0EADE8C
:1007500060E087E0E7DE809182009091830097FD62
:1007600006C061E0DFDE60E08091820097DE81E01C
:1007700080937D0035DD60918400633311F1C09179
:100780008500D0918600615030E020E029F070E0D3
:100790008FEF92E3D5D19B01FE01409180005091F3
:1007A0008100CF018C1B9D0B8417950738F4808145
:1007B00090E0B901B4D190833196EFCF83E3809379
:1007C00084008AE090E08CD180936D008BE090E013
:1007D00087D180936E0080916D0090916E00049798
:1007E00020F010926E0010926D00D6DE15DFEE2420
:1007F000E3948090680090906900A0906A00B090A7
:100800006B00CA99DEC06AE070E080E090E0E3DD52
:100810000BDE681979098A099B09613273408105E9
:100820009105E0F001DE681979098A099B09683EA3
:1008300073408105910590F441E050E06FEF7FEF48
:100840008FEF90E0FDDD64E670E080E090E0C3DDD6
:1008500041E050E060E070E0CB01F2DDE5DD6819D9
:1008600079098A099B09613D77408105910508F264
:10087000DBDD00916F0010917000209171003091CC
:100880007200601B710B820B930B693E73408105F4
:100890009105C8F0C9DD60936F007093700080937C
:1008A00071009093720080916D0090916E0001969E
:1008B0008230910509F446C090936E0080936D00DC
:1008C0006BDEE0926C00B0DD00916F001091700063
:1008D0002091710030917200601B710B820B930BA1
:1008E000613777418105910508F460C09DDDF12CE9
:1008F000D0E0C0E0009166001091670080917E001A
:1009000090917F00C817D90708F045C00F0D902FB0
:1009100090959535E0F4892F6DEFF8D08150082F30
:1009200010E030E020E0980111270027892F63E0D4
:10093000EDD0B901A801482BCE01B4DB219680E1AE
:10094000F80ED8CF10926E0010926D00B9CF9A3A7F
:1009500088F49555892F63E0D9D0082F10E030E056
:1009600020E0322F212F102F0027892F6DEFCED0BE
:100970008150DFCF9A5A892F6DEFC8D02FEF280F03
:10098000892F63E0C3D090E0B0E0A0E0BC01552720
:100990004427522BD1CF24DC0F5F1F4F0F3F11058F
:1009A00009F054F410936700009366006AE070E069
:1009B00080E090E010DD1DCF10926700109266007D
:1009C000F5CF32DD681979098A099B0961327340D4
:1009D0008105910510F0E0926C0026DD60936800BF
:1009E0007093690080936A0090936B0080916C0013
:1009F000882309F468CF10926C000EDE64CF109249
:100A00007D001092840010928B0010928C00109246
:100A10008D0010928E0081E080938A008093870081
:100A20001092880092E09093890080937C0080E38C
:100A300090E090938100809380009CD090938600FA
:100A4000809385000097A9F120E3FC0111922A957B
:100A5000E9F780E190E090937F0080937E00109210
:100A600083001092820080917D00882331F061E044
:100A700080E058DD60E080E011DD88E390E0909355
:100A8000900080938F0081E080939100CDDC609393
:100A900068007093690080936A0090936B00C4DCD7
:100AA00060936F0070937000809371009093720058
:100AB0000895109281001092800010927F00109291
:100AC0007E00CDCF8091850090918600EFD08091FF
:100AD00082009091830097FD02C060E023CD0895CD
:100AE000E199FECF9FBB8EBBE09A99278DB3089505
:100AF000262FE199FECF1CBA9FBB8EBB2DBB0FB634
:100B0000F894E29AE19A0FBE01960895002480FDC0
:100B1000060E660F11F08695D1F7802D08950024FA
:100B2000552704C0080E591F880F991F009729F0F8
:100B300076956795B8F37105B9F7802D952F0895CF
:100B4000AA1BBB1B51E107C0AA1FBB1FA617B707F3
:100B500010F0A61BB70B881F991F5A95A9F780950F
:100B60009095BC01CD010895EE0FFF1F0590F49103
:100B7000E02D09940F931F93CF93DF93823091055B
:100B800010F482E090E0E0919400F091950030E064
:100B900020E0B0E0A0E0309799F42115310509F488
:100BA0004AC0281B390B24303105D8F58A819B8136
:100BB0006115710589F1FB0193838283FE0111C0E8
:100BC000408151810281138148175907E0F048178D
:100BD000590799F4109761F012960C931297139697
:100BE0001C933296CF01DF91CF911F910F91089501
:100BF0000093940010939500F4CF2115310551F026
:100C00004217530738F0A901DB019A01BD01DF014A
:100C1000F801C1CFEF01F9CF909395008093940034
:100C2000CDCFFE01E20FF31F819391932250310942
:100C300039832883D7CF2091920030919300232BC2
:100C400041F420916200309163003093930020932F
:100C5000920020916000309161002115310541F42E
:100C60002DB73EB74091640050916500241B350BB1
:100C7000E0919200F0919300E217F307A0F42E1B8D
:100C80003F0B2817390778F0AC014E5F5F4F2417F0
:100C9000350748F04E0F5F1F50939300409392002A
:100CA000819391939FCFF0E0E0E09CCFCF93DF93CF
:100CB0000097E9F0FC01329713821282A091940010
:100CC000B0919500ED0130E020E01097A1F4208173
:100CD0003181820F931F2091920030919300281749
:100CE000390709F061C0F0939300E0939200DF911F
:100CF000CF910895EA01CE17DF07E8F54A815B81BD
:100D00009E0141155105B1F7E901FB83EA83499141
:100D10005991C40FD51FEC17FD0761F480819181B3
:100D20000296840F951FE9019983888382819381BC
:100D30009B838A83F0E0E0E012968D919C9113975B
:100D40000097B9F52D913C911197CD010296820F34
:100D5000931F20919200309193002817390739F69C
:100D6000309751F51092950010929400B093930033
:100D7000A0939200BCCFD383C28340815181840F62
:100D8000951FC817D90761F44E5F5F4F888199811D
:100D9000480F591F518340838A819B8193838283AB
:100DA0002115310509F0B0CFF0939500E093940040
:100DB0009ECFFD01DC01C0CF13821282D7CF10E09D
:100DC000CBE2D0E003C0FE01CFDE2196CC32D107CA
:060DD000D1F7F894FFCFFB
:060DD60000009600800001
:00000001FF
