:100000002AC043C042C041C040C03FC03EC03DC006
:100010003CC03BC03AC09CC138C037C036C035C0B8
:1000200034C000003A00370000003B0038000202F4
:1000300002010101010101010102010204804020CD
:10004000100804020108000001020304000000007F
:1000500000000000AC0211241FBECFE5D2E0DEBFDD
:10006000CDBF20E0A0E6B0E001C01D92A437B207EA
:10007000E1F710E0CBE2D0E003C02197FE0195D27A
:10008000CA32D107D1F7AED196C2BACF3FB7F894F2
:100090008091700090917100A0917200B0917300F6
:1000A00022B708B600FE05C02F3F19F00196A11D2A
:1000B000B11D3FBFBA2FA92F982F8827BC01CD01B2
:1000C000620F711D811D911D43E0660F771F881F10
:1000D000991F4A95D1F70895CF92DF92EF92FF9240
:1000E000CF93DF936B017C01D1DFEB01CFDF6C1B82
:1000F0007D0B683E7340A0F0C114D104E104F1040B
:1001000039F4DF91CF91FF90EF90DF90CF90089579
:1001100081E0C81AD108E108F108C851DC4FE6CFE8
:10012000C114D104E104F10409F7EBCF2FB7F8941F
:1001300060916C0070916D0080916E0090916F00E5
:100140002FBF089587FF07C0E82FEF778AE08E1B47
:10015000E83008F08FEF90E0FC01EA5BFF4F34914C
:10016000FC01E65CFF4F2491FC01E25DFF4FE4914E
:10017000EE23B9F0332329F03130A1F480B78F7723
:1001800080BFF0E0EE0FFF1FE85DFF4FA591B49137
:100190008FB7611117C0F894EC9120952E232C9302
:1001A0008FBF0895323019F480B78F7DE9CF333097
:1001B00021F48FB58F778FBDE4CF343011F78FB531
:1001C0008F7DF9CFF894EC912E2BE9CFCF93DF936D
:1001D00087FF07C0E82FEF778AE08E1BE83008F032
:1001E0008FEF90E0FC01E65CFF4F2491825D9F4F12
:1001F000FC0184918823D1F090E0880F991FFC01C5
:10020000EE5DFF4FA591B491FC01E85DFF4FC591F4
:10021000D49161110EC09FB7F8948C91E22FE095B4
:100220008E238C932881E223E8839FBFDF91CF91B7
:1002300008958FB7F894EC91E22BEC938FBFF6CF33
:100240001F93CF93DF93182FEB0161E0BFDF20975F
:1002500031F460E0812FDF91CF911F9173CFCF3FB9
:10026000D10511F461E0F6CFE12FF0E0EA5BFF4F3A
:10027000E491E13041F480B7806880BFC6BFDF9170
:10028000CF911F910895E23029F480B7806280BF3A
:10029000CCBFF5CFE33031F48FB580688FBDDBBDC7
:1002A000CABDEDCFE43031F48FB580628FBDD9BDCA
:1002B000C8BDE5CFC038D105ACF6CBCFCF93809188
:1002C000650090916600892B91F470E060E082E017
:1002D000B7DF70E060E083E0B3DF6FEF70E084E0F1
:1002E000AFDF60E089E02EDF61E08AE02BDF809104
:1002F000650090916600019791F464EB70E082E0F4
:100300009FDF64E170E083E09BDF64EB70E084E0FA
:1003100097DF61E089E016DF61E08AE013DFC091DA
:1003200065008AE090E02BD1C81721F06C2F8AE09D
:1003300090E02DD1C09166008BE090E020D18C1729
:1003400029F06C2F8BE090E0CF9121C1CF910895DF
:100350001F920F920FB60F9211242F933F938F93FA
:100360009F93AF93BF9380916C0090916D00A0918B
:100370006E00B0916F0030916B0026E0230F2D3797
:1003800068F129E8230F0396A11DB11D20936B008E
:1003900080936C0090936D00A0936E00B0936F00FB
:1003A0008091700090917100A0917200B0917300E3
:1003B0000196A11DB11D8093700090937100A093D0
:1003C0007200B0937300BF91AF919F918F913F9155
:1003D0002F910F900FBE0F901F9018950296A11DA0
:1003E000B11DD4CF83E080BF83BF789499B791606B
:1003F00099BF91E09FBD8EBD86E886B981E88FBD2B
:1004000089E08EBD8FE790E09BBD8ABD61E082E010
:10041000DDDE61E083E0DADE61E084E0D7DE70E01B
:1004200060E082E00DDF70E060E083E009DF70E013
:1004300060E084E005DF61E089E0C8DE61E08AE039
:10044000C5DE60E088E0C2DE60E087E0BFDE8AE013
:1004500090E095D0809365008BE090E090D0809301
:1004600066008091650090916600049720F01092DC
:1004700066001092650022DFCA994DC06AE070E004
:1004800080E090E029DE52DE009160001091610072
:100490002091620030916300601B710B820B930B03
:1004A000613D77408105910538F340DE009167009A
:1004B000109168002091690030916A00601B710BF7
:1004C000820B930B693E734081059105C8F02EDEC7
:1004D00060936700709368008093690090936A004E
:1004E000809165009091660001968230910571F0CF
:1004F0009093660080936500E1DE81E08093640064
:100500006AE070E080E090E0E7DDB6CF1092660030
:1005100010926500F1CF0ADE609360007093610075
:10052000809362009093630080916400882341F37C
:100530001092640061E087E049DE60E087E002DE5F
:1005400064EF71E080E090E0C7DD61E087E0FADD14
:1005500060E087E03BDED4CFE9DD6093600070931C
:1005600061008093620090936300E0DD6093670018
:10057000709368008093690090936A000895E199F0
:10058000FECF9FBB8EBBE09A99278DB30895262F8F
:10059000E199FECF1CBA9FBB8EBB2DBB0FB6F89462
:1005A000E29AE19A0FBE01960895EE0FFF1F0590A3
:0A05B000F491E02D0994F894FFCFB8
:00000001FF
