:100000002AC043C042C041C040C03FC03EC03DC006
:100010003CC03BC03AC0D1C138C037C036C035C083
:1000200034C000003A00370000003B0038000202F4
:1000300002010101010101010102010204804020CD
:10004000100804020108000001020304000000007F
:1000500000000000D60211241FBECFE5D2E0DEBFB3
:10006000CDBF20E0A0E6B0E001C01D92A437B207EA
:10007000E1F710E0CBE2D0E003C02197FE01BFD250
:10008000CA32D107D1F7E3D1C0C2BACF3FB7F89493
:100090008091700090917100A0917200B0917300F6
:1000A00022B708B600FE05C02F3F19F00196A11D2A
:1000B000B11D3FBFBA2FA92F982F8827BC01CD01B2
:1000C000620F711D811D911D43E0660F771F881F10
:1000D000991F4A95D1F70895CF92DF92EF92FF9240
:1000E000CF93DF93D3DFEB018AE0C82ED12CE12C34
:1000F000F12CCCDF6C1B7D0B683E7340A0F0C1146B
:10010000D104E104F10439F4DF91CF91FF90EF9035
:10011000DF90CF90089581E0C81AD108E108F10876
:10012000C851DC4FE6CFC114D104E104F10409F752
:10013000EBCF2FB7F89460916C0070916D008091B7
:100140006E0090916F002FBF089587FF07C0E82FC2
:10015000EF778AE08E1BE83008F08FEF90E0FC012B
:10016000EA5BFF4F3491FC01E65CFF4F2491FC01F8
:10017000E25DFF4FE491EE23B9F0332329F03130F3
:10018000A1F480B78F7780BFF0E0EE0FFF1FE85D2E
:10019000FF4FA591B4918FB7611117C0F894EC91FE
:1001A00020952E232C938FBF0895323019F480B7F9
:1001B0008F7DE9CF333021F48FB58F778FBDE4CFBA
:1001C000343011F78FB58F7DF9CFF894EC912E2B49
:1001D000E9CFCF93DF9387FF07C0E82FEF778AE05F
:1001E0008E1BE83008F08FEF90E0FC01E65CFF4FDB
:1001F0002491825D9F4FFC0184918823D1F090E08F
:10020000880F991FFC01EE5DFF4FA591B491FC0191
:10021000E85DFF4FC591D49161110EC09FB7F8946E
:100220008C91E22FE0958E238C932881E223E88342
:100230009FBFDF91CF9108958FB7F894EC91E22B97
:10024000EC938FBFF6CF1F93CF93DF93182FEB0163
:1002500061E0BFDF209731F460E0812FDF91CF9123
:100260001F9173CFCF3FD10511F461E0F6CFE12F9D
:10027000F0E0EA5BFF4FE491E13041F480B7806841
:1002800080BFC6BFDF91CF911F910895E23029F45E
:1002900080B7806280BFCCBFF5CFE33031F48FB53B
:1002A00080688FBDDBBDCABDEDCFE43031F48FB5C2
:1002B00080628FBDD9BDC8BDE5CFC038D105ACF6D1
:1002C000CBCF70E060E082E0BEDF70E060E083E012
:1002D000BADF6FEF70E084E0B6CFCF938091650016
:1002E00090916600892B39F4ECDF60E089E02DDF26
:1002F00061E08AE02ADF80916500909166000197B5
:1003000091F464EB70E082E09EDF64E170E083E0F2
:100310009ADF64EB70E084E096DF61E089E015DF4E
:1003200061E08AE012DFC09165008AE090E051D17F
:10033000C81721F06C2F8AE090E053D1C09166007D
:100340008BE090E046D1C81729F06C2F8BE090E04D
:10035000CF9147C1CF910895CF93DF9361E087E0BC
:1003600038DF60E087E0F1DEC0E1D0E06FEF70E001
:1003700082E069DF70E060E083E065DF70E060E00C
:1003800084E061DFA9DE70E060E082E05CDF6FEFB7
:1003900070E083E058DF70E060E084E054DF9CDED2
:1003A00090DF9ADE219711F761E087E0CEDE60E012
:1003B00087E00FDFDF91CF9190CF1F920F920FB6A2
:1003C0000F9211242F933F938F939F93AF93BF93DB
:1003D00080916C0090916D00A0916E00B0916F00C3
:1003E00030916B0026E0230F2D3768F129E8230FA9
:1003F0000396A11DB11D20936B0080936C00909318
:100400006D00A0936E00B0936F008091700090918A
:100410007100A0917200B09173000196A11DB11DF1
:100420008093700090937100A0937200B09373005A
:10043000BF91AF919F918F913F912F910F900FBEE0
:100440000F901F9018950296A11DB11DD4CF83E087
:1004500080BF83BF789499B7916099BF91E09FBDA9
:100460008EBD86E886B981E88FBD89E08EBD8FE7B5
:1004700090E09BBD8ABD61E082E0ABDE61E083E09D
:10048000A8DE61E084E0A5DE70E060E082E0DBDE13
:1004900070E060E083E0D7DE70E060E084E0D3DE0F
:1004A00061E089E096DE61E08AE093DE60E088E06A
:1004B00090DE60E087E08DDE8AE090E08AD0809375
:1004C00065008BE090E085D08093660080916500A8
:1004D00090916600049720F01092660010926500DB
:1004E000FCDE3ADFC1E0C0906000D0906100E09097
:1004F0006200F0906300CA993CC0EEDD1ADE6C1910
:100500007D098E099F09613D77408105910558F36A
:1005100010DEC0906700D0906800E0906900F09015
:100520006A006C197D098E099F09693E7340810537
:100530009105C0F0FEDD60936700709368008093C2
:10054000690090936A008091650090916600019621
:100550008230910549F09093660080936500BDDE7E
:10056000C0936400B9DDBFCF1092660010926500A1
:10057000F6CFDFDD6C197D098E099F09613273406A
:100580008105910510F0C0936400D3DD6093600095
:100590007093610080936200909363008091640087
:1005A000882301F310926400D7DEDCCFC2DD6093B4
:1005B0006000709361008093620090936300B9DDE6
:1005C00060936700709368008093690090936A005D
:1005D0000895E199FECF9FBB8EBBE09A99278DB31A
:1005E0000895262FE199FECF1CBA9FBB8EBB2DBB71
:1005F0000FB6F894E29AE19A0FBE01960895EE0FB5
:0E060000FF1F0590F491E02D0994F894FFCFB0
:00000001FF
