:100000002BC04FC04EC04DC04CC04BC04AC049C0B1
:1000100048C047C046C087C344C043C042C041C077
:1000200040C000003A00370000003B0038000202E8
:1000300002010101010101010102010204804020CD
:10004000100804020108000001020304000000007F
:10005000000000008907EC0711241FBECFE5D2E0A5
:10006000DEBFCDBF10E0A0E6B0E0ECEDF4E102C0F1
:1000700005900D92AC36B107D9F720E0ACE6B0E0C0
:1000800001C01D92A03BB207E1F710E0CBE2D0E047
:1000900003C02197FE01EBD8CA32D107D1F78DD327
:1000A00011CAAECF8F929F92AF92BF92EF92FF9202
:1000B0000F931F93CF93DF93DC018A019B01809103
:1000C000980090919900A817B90708F040C0A901BD
:1000D00066277727F42E812E922EA32EBB24D82DAF
:1000E000E02EC0919E00CC2389F0EC2FF0E0842F0D
:1000F00090E0BF0197D8F92E882D90E0BF0192D8EB
:10010000D92F802F90E0BF018DD8E92E4091A40017
:10011000E0919F00F091A0008091A100481322C0BF
:10012000CD0163E070E07ED8E80FF91FA091A10037
:10013000AE0FBF2FB11DFC92A091A200AE0FBF2F3A
:10014000B11DDC938091A300E80FF11DE082DF91E7
:10015000CF911F910F91FF90EF90BF90AF909F9024
:100160008F900895AA0FBB1FAA0FBB1FEA0FFB1F9A
:10017000032F112722273327902FCC2321F08C2FF8
:1001800090E0B8014FD8DF01A40FB11D9C93CECFF2
:10019000DC01462F80919E00882321F070E090E0E2
:1001A00041D8492FE091A40020919F003091A000F8
:1001B0008091A100E81319C0CD0163E070E032D84E
:1001C000820F931FE091A100E80FF92FF11D10821B
:1001D000E091A200E80FF92FF11D10822091A300F9
:1001E000820F911DFC0140830895CD01880F991F56
:1001F000880F991F820F931FE80FF92FF11D1082AE
:10020000E1CF8F7387B9369A3699FECF84B195B115
:1002100008953FB7F8948091920090919300A09137
:100220009400B091950022B708B600FE05C02F3F9C
:1002300019F00196A11DB11D3FBFBA2FA92F982F0C
:100240008827BC01CD01620F711D811D911D43E006
:10025000660F771F881F991F4A95D1F70895CF928F
:10026000DF92EF92FF920F931F93CF93DF93CDB75F
:10027000DEB729970FB6F894DEBF0FBECDBF8091D1
:100280009F009091A000892B09F4A4C0C090A50004
:10029000D090A600E090A700F090A800BADF6C15FF
:1002A0007D058E059F0548F4B4DF6093A50070932B
:1002B000A6008093A7009093A800ABDF0091A50053
:1002C0001091A6002091A7003091A800601B710B2F
:1002D000820B930B6C32714081059105B8F2F89452
:1002E00080919A0090919B009A838983E0919F006E
:1002F000F091A000DF01119680818987909196008E
:100300008091AB00992309F474C01B8298B3982B99
:10031000988798B3809589238F838F818C83898573
:1003200087FF02C088858C8358856F8149853C8111
:100330002B8189819A8158BB262F38BB00C046FD8E
:10034000252F68BB00C058BB362F28BB00C045FD19
:10035000352F68BB00C058BB262F38BB00C044FDFA
:10036000252F68BB00C058BB362F28BB00C043FDFB
:10037000352F68BB00C058BB262F38BB00C042FDDC
:10038000252F68BB00C058BB362F28BB00C041FDDD
:10039000352F68BB00C058BB262F38BB00C040FDBE
:1003A000252F68BB019758BB362F28BB4D9147FDC1
:1003B000352F68BB01F649873C832B839A83898359
:1003C000789427DF6093A5007093A6008093A70020
:1003D0009093A80029960FB6F894DEBF0FBECDBF4C
:1003E000DF91CF911F910F91FF90EF90DF90CF9011
:1003F0000895E091A900F091AA009081982B988728
:100400009081809589238F838F818E8388E08D836F
:1004100058856F8149853D812E8189819A815083DC
:1004200047FD252F2083262F3A9531F0441F608306
:1004300000C000C000C0F3CF6083000038E04D91E1
:10044000019769F7F093AA00E093A90049873D83DB
:100450002E83B4CFCF92DF92EF92FF92CF93DF93B0
:100460006B017C01D6DEEB01C114D104E104F1047F
:1004700041F412C081E0C81AD108E108F108C8515E
:10048000DC4FC7DE6C1B7D0B683E734068F3C11404
:10049000D104E104F10471F7DF91CF91FF90EF9067
:1004A000DF90CF9008952FB7F89460918E007091EF
:1004B0008F0080919000909191002FBF08958F92AE
:1004C0009F92AF92BF92CF92DF92EF92FF92CF9323
:1004D000DF934B015C01D0E0C0E06A01550FEE08EC
:1004E000FF088091980090919900C817D90750F49F
:1004F000B501A401CE01D6DDB2DEC701B601AADF87
:100500002196EFCFDF91CF91FF90EF90DF90CF90CA
:10051000BF90AF909F908F90089587FF07C0E82FFE
:10052000EF778AE08E1BE83008F08FEF90E0FC0157
:10053000EA5BFF4F3491FC01E65CFF4F2491FC0124
:10054000E25DFF4FE491EE23B9F0332329F031301F
:10055000A1F480B78F7780BFF0E0EE0FFF1FE85D5A
:10056000FF4FA591B4918FB7611117C0F894EC912A
:1005700020952E232C938FBF0895323019F480B725
:100580008F7DE9CF333021F48FB58F778FBDE4CFE6
:10059000343011F78FB58F7DF9CFF894EC912E2B75
:1005A000E9CFCF93DF9387FF07C0E82FEF778AE08B
:1005B0008E1BE83008F08FEF90E0FC01E65CFF4F07
:1005C0002491825D9F4FFC0184918823D1F090E0BB
:1005D000880F991FFC01EE5DFF4FA591B491FC01BE
:1005E000E85DFF4FC591D49161110EC09FB7F8949B
:1005F0008C91E22FE0958E238C932881E223E8836F
:100600009FBFDF91CF9108958FB7F894EC91E22BC3
:10061000EC938FBFF6CF1F93CF93DF93C0918700EA
:10062000D0918800C130D10561F174F42097D9F0E0
:1006300081E090E081D5C817C9F16C2F81E090E08E
:10064000DF91CF911F9180C5C230D10519F1C33020
:10065000D10571F74AE050E064EB74E184EB90E07F
:100660002EDF61E01FC04AE050E06FEF70E080E0F5
:1006700090E025DF60E089E050DF60E08AE04DDF58
:10068000D7CF4AE050E060E070E08FEF90E017DFF6
:1006900061E0F1CF4AE050E060E07FEF80E090E081
:1006A0000EDF60E089E039DF61E0E8CFDF91CF91D4
:1006B0001F910895CF93DF9361E087E072DF60E0E0
:1006C00087E02BDFC3E0D0E041E050E06FEF7FEF49
:1006D0008FEF90E0F4DE6AE070E080E090E0BADE58
:1006E00041E050E060E070E0CB01E9DE6AE070E0FC
:1006F00080E090E0AFDE219739F761E087E00DDF21
:1007000060E087E04EDFCFDE6093890070938A005F
:1007100080938B0090938C00109281001092800047
:10072000DF91CF9178CF1F920F920FB60F921124C5
:100730002F933F938F939F93AF93BF9380918E009E
:1007400090918F00A0919000B091910030918D0018
:1007500026E0230F2D3768F129E8230F0396A11D0A
:10076000B11D20938D0080938E0090938F00A093F5
:100770009000B09391008091920090919300A0918D
:100780009400B09195000196A11DB11D8093920037
:1007900090939300A0939400B0939500BF91AF9174
:1007A0009F918F913F912F910F900FBE0F901F90AF
:1007B00018950296A11DB11DD4CF83E080BF83BFE1
:1007C000789499B7916099BF91E09FBD8EBD86E8FE
:1007D00086B981E88FBD89E08EBD8FE790E09BBD33
:1007E0008ABD61E089E0DDDE61E08AE0DADE60E0BA
:1007F00088E0D7DE60E087E0D4DE80E002DD0097AD
:1008000021F0BC0190E080E08ED480919C0090911A
:100810009D0097FD06C061E0C4DE60E080919C0011
:100820007CDE81E0809397001ADD60919E00633347
:1008300011F1C0919F00D091A000615030E020E004
:1008400029F070E08FEF92E3FED49B01FE0140910E
:100850009A0050919B00CF018C1B9D0B841795072C
:1008600038F4808190E0B901DDD490833196EFCFE8
:1008700083E380939E0081E090E05ED4C82FD0E0B7
:10088000D0938800C093870082E090E055D490E038
:1008900090937F0080937E00249724F0109288002C
:1008A00010928700B8DE06DF44E0242E312C812C24
:1008B00099249A94A92CB12CC12CD12C7601EA94BC
:1008C000409082005090830060908400709085007A
:1008D000CA99FFC26AE070E080E090E0BBDDE3DD32
:1008E000641975098609970961327340810591057C
:1008F000E0F0D9DD6419750986099709683E7340EF
:100900008105910590F441E050E06FEF7FEF8FEFAC
:1009100090E0D5DD64E670E080E090E09BDD41E0B2
:1009200050E060E070E0CB01CADDBDDD64197509FF
:1009300086099709613D77408105910508F2B3DD8D
:100940000091890010918A0020918B0030918C00D9
:10095000601B710B820B930B693E734081059105FF
:10096000D0F0A1DD6093890070938A0080938B00A2
:1009700090938C008091870090918800019684303C
:10098000910509F451C0909388008093870043DE5D
:1009900081E0809386008091800090918100029791
:1009A000E1F4109281001092800080917E0090917D
:1009B0007F000196843091050CF056C090937F0023
:1009C00080937E00C0917E0082E090E0B5D3C8178E
:1009D00021F06C2F82E090E0B7D365DD00918900B3
:1009E00010918A0020918B0030918C00601B710B5C
:1009F000820B930B613777418105910578F08091E7
:100A00007E0090917F008130910509F4BDC08CF586
:100A1000712C10E000E0892B09F45BC06AE070E003
:100A200080E090E017DD4CCF109288001092870094
:100A3000AECF8091800090918100019690938100CB
:100A40008093800030DD60938200709383008093F8
:100A500084009093850080918600882309F49BCFC1
:100A60001092860027DE97CF10927F0010927E00B2
:100A7000A9CF8230910509F4C8C1039779F6809116
:100A80007C0090917D000196833391050CF4F1C1B7
:100A900010927D0010927C00D0E0C0E08091980020
:100AA00090919900C817D90708F0FEC1EED22AE04C
:100AB00030E040E050E06FD3693071058105910569
:100AC00031F44FEF5FEF6FEF70E0CE01EBDA21967C
:100AD000E5CFC0916C00D0916D008091980090910D
:100AE00099000817190708F03FC0C70DC095C53514
:100AF000B8F48C2F6DEF8DD3815090E0B0E0A0E082
:100B0000AC01332722278C2F63E083D3BA01A901DC
:100B1000482BC801C7DA0F5F1F4F20E1720ED9CFF3
:100B2000CA3A80F4C5558C2F63E073D390E0B0E0EF
:100B3000A0E02227382F492F5A2F8C2F6DEF69D331
:100B40008150E4CFCA5A8C2F6DEF63D39FEF980F7B
:100B50008C2F63E05ED3482F50E070E060E0BA0174
:100B600055274427592BD5CF7ADB2196CF3FD10586
:100B700009F02CF4D0936D00C0936C004FCF10920D
:100B80006D0010926C004ACF85E83BDB209160003D
:100B900030916100B90146D3811544E09407ACF56A
:100BA000909379008093780084E82BDB209160009B
:100BB00030916100B90136D38115A4E09A0794F50C
:100BC0009093770080937600D0E0C0E08091980009
:100BD00090919900C817D90708F051C0CA30D105C3
:100BE00070F5C630D10508F041C0C430D10550F5CC
:100BF00080E09FEFA0E0B0E08093720090937300DC
:100C0000A0937400B093750025C08FEF93E090938C
:100C1000790080937800215031093093610020934E
:100C20006000C2CF8FEF93E09093770080937600BF
:100C3000215031093093610020936000C5CFCC3042
:100C4000D105B0F68092720090927300A092740069
:100C5000B0927500409172005091730060917400E1
:100C600070917500CE011EDA2196B0CFC09272004D
:100C7000D0927300E0927400F0927500EBCF8091F7
:100C800078009091790085369105E4F58D339105D2
:100C90000CF05BC0853291050CF054C08731910592
:100CA0000CF049C097FF42C0809176009091770088
:100CB000853691050CF058C08D3391050CF078C045
:100CC000853291050CF071C0873191050CF066C03A
:100CD00097FF5FC0C0917000D0917100C730D105FF
:100CE0000CF075C0C830D10508F071C08091980033
:100CF00090919900C817D90718F460E0CE0148DA3E
:100D00002196F0CF8031A1E09A0734F4853A91051D
:100D1000FCF085E090E011C0813CB1E09B07ECF075
:100D2000811594400CF687E090E007C010927100A6
:100D300010927000B9CF81E090E0909371008093A1
:100D40007000B2CF82E090E0F8CF83E090E0F5CF82
:100D50003092710020927000A7CFA6E0B0E0B0936F
:100D60007100A0937000A0CF8031A1E09A0734F405
:100D7000853A910504F185E090E012C0813CB1E034
:100D80009B07F4F0811594400CF0A4CF87E090E02D
:100D900007C010926F0010926E009CCF81E090E02F
:100DA00090936F0080936E0095CF82E090E0F8CF33
:100DB00083E090E0F5CF30926F0020926E008ACFF2
:100DC000A6E0B0E0B0936F00A0936E0083CFC09117
:100DD0006E00D0916F00C730D105ACF40FE010E089
:100DE0000C1B1D0BC830D10570F4809198009091B8
:100DF00099000817190718F460E0C801C9D92196AD
:100E000001501109EFCF2BDA09CED0E0C0E080917C
:100E1000980090919900C817D90768F480917A00DA
:100E200090917B0048EC58EC68EC70E08C0F9D1FB3
:100E300039D92396ECCF13DAD0E0C0E08091980046
:100E400090919900C817D90760F480917A00909129
:100E50007B0040E050E0BA018C0F9D1F23D9239600
:100E6000EDCF80917C0090917D0001968B309105B3
:100E70002CF490937D0080937C00D0CD10927D0067
:100E800010927C0080917A0090917B0001968330D3
:100E900091052CF490937B0080937A00BFCD109243
:100EA0007B0010927A00BACDDAD96EE170E080E072
:100EB00090E0D0DAD0E0C0E0809198009091990065
:100EC000C817D90708F09FCF60E4CE0161D92196F9
:100ED000F3CFE9DA64197509860997096233710558
:100EE0008105910508F4AECD6D32A1E07A07810548
:100EF000910508F49ECD6052734081099109603BD1
:100F000074408105910508F09DCD81E080938600B5
:100F100099CD1092970010929E001092A500109209
:100F2000A6001092A7001092A80081E08093A40070
:100F30008093A1001092A20092E09093A30080936E
:100F4000960080E390E090939B0080939A0095D167
:100F50009093A00080939F000097A9F120E3FC01EB
:100F600011922A95E9F780E190E09093990080939F
:100F7000980010929D0010929C0080919700882309
:100F800031F061E080E00DDB60E080E0C6DA88E30C
:100F900090E09093AA008093A90081E08093AB0039
:100FA00082DA609382007093830080938400909330
:100FB000850079DA6093890070938A0080938B00B2
:100FC00090938C00089510929B0010929A001092BA
:100FD000990010929800CDCF80919F009091A00031
:100FE000E8D180919C0090919D0097FD02C060E047
:100FF000D8CA08958F929F92AF92BF92CF92DF92FC
:10100000EF92FF92CF93DF93EC01688179818A811F
:101010009B81611571058105910521F464E279EDEB
:101020008BE597E02DE133EF41E050E0B4D049018A
:101030005A0127EA31E440E050E094D06B017C0192
:101040002CEE34EF4FEF5FEFC501B4018BD0C60E2D
:10105000D71EE81EF91EF7FE06C081E0C81AD108A7
:10106000E10880E8F80AC882D982EA82FB82C701D7
:10107000B6019F77DF91CF91FF90EF90DF90CF90F7
:10108000BF90AF909F908F9008958F929F92AF9254
:10109000BF92CF92DF92EF92FF92609162007091C7
:1010A0006300809164009091650061157105810570
:1010B000910521F464E279ED8BE597E02DE133EFC2
:1010C00041E050E068D049015A0127EA31E440E0AC
:1010D00050E048D06B017C012CEE34EF4FEF5FEF16
:1010E000C501B4013FD0C60ED71EE81EF91EF7FE9B
:1010F00006C081E0C81AD108E10880E8F80AC09269
:101100006200D0926300E0926400F0926500C70133
:10111000B6019F77FF90EF90DF90CF90BF90AF9098
:101120009F908F9008956093620070936300809306
:101130006400909365000895E199FECF9FBB8EBB3C
:10114000E09A99278DB30895262FE199FECF1CBA16
:101150009FBB8EBB2DBB0FB6F894E29AE19A0FBEEF
:1011600001960895EE27FF27AA27BB2708C0A20FE4
:10117000B31FE41FF51F220F331F441F551F969501
:1011800087957795679598F37040A9F7009799F739
:10119000BD01CF010895052E97FB16F400940FD0E2
:1011A00057FD05D014D007FC02D046F408C0509576
:1011B0004095309521953F4F4F4F5F4F0895909543
:1011C0008095709561957F4F8F4F9F4F0895A1E255
:1011D0001A2EAA1BBB1BFD010DC0AA1FBB1FEE1FB1
:1011E000FF1FA217B307E407F50720F0A21BB30BFC
:1011F000E40BF50B661F771F881F991F1A9469F778
:1012000060957095809590959B01AC01BD01CF01D3
:101210000895002480FD060E660F11F08695D1F723
:10122000802D08950024552704C0080E591F880FEB
:10123000991F009729F076956795B8F37105B9F76E
:10124000802D952F0895AA1BBB1B51E107C0AA1F33
:10125000BB1FA617B70710F0A61BB70B881F991F57
:101260005A95A9F780959095BC01CD010895EE0F90
:10127000FF1F0590F491E02D09940F931F93CF93D6
:10128000DF938230910510F482E090E0E091AE00AF
:10129000F091AF0030E020E0B0E0A0E0309799F4AA
:1012A0002115310509F44AC0281B390B24303105BA
:1012B000D8F58A819B816115710589F1FB019383C2
:1012C0008283FE0111C04081518102811381481740
:1012D0005907E0F04817590799F4109761F01296F2
:1012E0000C93129713961C933296CF01DF91CF91F6
:1012F0001F910F9108950093AE001093AF00F4CFAB
:101300002115310551F04217530738F0A901DB01CF
:101310009A01BD01DF01F801C1CFEF01F9CF909330
:10132000AF008093AE00CDCFFE01E20FF31F81939B
:1013300091932250310939832883D7CF2091AC0073
:101340003091AD00232B41F4209168003091690069
:101350003093AD002093AC0020916600309167007F
:101360002115310541F42DB73EB740916A005091E7
:101370006B00241B350BE091AC00F091AD00E2173F
:10138000F307A0F42E1B3F0B2817390778F0AC01A8
:101390004E5F5F4F2417350748F04E0F5F1F509385
:1013A000AD004093AC00819391939FCFF0E0E0E0DB
:1013B0009CCFCF93DF930097E9F0FC013297138223
:1013C0001282A091AE00B091AF00ED0130E020E0BC
:1013D0001097A1F420813181820F931F2091AC00DE
:1013E0003091AD002817390709F061C0F093AD00C6
:1013F000E093AC00DF91CF910895EA01CE17DF07AB
:10140000E8F54A815B819E0141155105B1F7E9017B
:10141000FB83EA8349915991C40FD51FEC17FD074F
:1014200061F4808191810296840F951FE90199836F
:101430008883828193819B838A83F0E0E0E0129627
:101440008D919C9113970097B9F52D913C9111972F
:10145000CD010296820F931F2091AC003091AD0018
:101460002817390739F6309751F51092AF001092CE
:10147000AE00B093AD00A093AC00BCCFD383C283C9
:1014800040815181840F951FC817D90761F44E5FC1
:101490005F4F88819981480F591F518340838A810A
:1014A0009B81938382832115310509F0B0CFF0939E
:1014B000AF00E093AE009ECFFD01DC01C0CF1382F0
:1014C0001282D7CF10E0CBE2D0E003C0FE01CFDE26
:0C14D0002196CC32D107D1F7F894FFCF61
:0C14DC000400010000000000B0008000CF
:00000001FF
