:100000002BC04FC04EC04DC04CC04BC04AC049C0B1
:1000100048C047C046C063C344C043C042C041C09B
:1000200040C000003A00370000003B0038000202E8
:1000300002010101010101010102010204804020CD
:10004000100804020108000001020304000000007F
:10005000000000001606790611241FBECFE5D2E08D
:10006000DEBFCDBF10E0A0E6B0E0E2EFFFE002C0EF
:1000700005900D92A836B107D9F720E0A8E6B0E0C8
:1000800001C01D92A23AB207E1F710E0CBE2D0E046
:1000900003C02197FE0176D6CA32D107D1F769D3C2
:1000A0009CC7AECF4F925F926F927F928F929F923A
:1000B000AF92BF92DF92EF92FF920F931F93CF9375
:1000C000DF93EC018A019B01290166247724E42C4B
:1000D000812E922EA32EBB24F82CD02E409190007E
:1000E000442389F0A42FB0E0842D90E0BD0125D6F3
:1000F000E92E882D90E0BD0120D6F92E802F90E0CA
:10010000BD011BD6D92EA0919600E0919100F091EF
:10011000920080919300A81327C0CE0163E070E0A5
:100120000CD6E80FF91FA0919300AE0FBF2FB11DA1
:10013000EC92A0919400AE0FBF2FB11DFC92809164
:100140009500E80FF11DD082DF91CF911F910F91A3
:10015000FF90EF90DF90BF90AF909F908F907F9037
:100160006F905F904F900895CC0FDD1FCC0FDD1F77
:10017000EC0FFD1F032F112722273327902F442335
:1001800021F0842F90E0B801D8D5AE0FBF2FB11D5C
:100190009C93C9CFE09196002091910030919200FC
:1001A00040919300E41318C063E070E0C6D5820F5D
:1001B000931FE0919300E80FF92FF11D1082E09159
:1001C0009400E80FF92FF11D108220919500820F05
:1001D000911DFC0110820895880F991F880F991FA7
:1001E000820F931FE80FF92FF11D1082E2CF8F735A
:1001F00087B9369A3699FECF84B195B108953FB745
:10020000F8948091840090918500A0918600B0912F
:10021000870022B708B600FE05C02F3F19F00196EF
:10022000A11DB11D3FBFBA2FA92F982F8827BC0150
:10023000CD01620F711D811D911D43E0660F771F77
:10024000881F991F4A95D1F70895CF92DF92EF92B8
:10025000FF920F931F93CF93DF93CDB7DEB729970C
:100260000FB6F894DEBF0FBECDBF80919100909184
:100270009200892B09F4A4C0C0909700D0909800F8
:10028000E0909900F0909A00BADF6C157D058E051C
:100290009F0548F4B4DF60939700709398008093B3
:1002A000990090939A00ABDF00919700109198000D
:1002B0002091990030919A00601B710B820B930B77
:1002C0006C32714081059105B8F2F89480918C00F0
:1002D00090918D009A838983E0919100F091920032
:1002E000DF011196808189879091880080919D001F
:1002F000992309F474C01B8298B3982B988798B3FC
:10030000809589238F838F818C83898587FF02C0A5
:1003100088858C8358856F8149853C812B818981B3
:100320009A8158BB262F38BB00C046FD252F68BBDD
:1003300000C058BB362F28BB00C045FD352F68BB19
:1003400000C058BB262F38BB00C044FD252F68BB1A
:1003500000C058BB362F28BB00C043FD352F68BBFB
:1003600000C058BB262F38BB00C042FD252F68BBFC
:1003700000C058BB362F28BB00C041FD352F68BBDD
:1003800000C058BB262F38BB00C040FD252F68BBDE
:10039000019758BB362F28BB4D9147FD352F68BBC1
:1003A00001F649873C832B839A838983789427DFDE
:1003B00060939700709398008093990090939A00AF
:1003C00029960FB6F894DEBF0FBECDBFDF91CF9157
:1003D0001F910F91FF90EF90DF90CF900895E091E3
:1003E0009B00F0919C009081982B9887908180953C
:1003F00089238F838F818E8388E08D8358856F81D9
:1004000049853D812E8189819A81508347FD252F21
:100410002083262F3A9531F0441F608300C000C02E
:1004200000C0F3CF6083000038E04D91019769F779
:10043000F0939C00E0939B0049873D832E83B4CFCB
:10044000CF92DF92EF92FF92CF93DF936B017C010B
:10045000D6DEEB01C114D104E104F10441F412C071
:1004600081E0C81AD108E108F108C851DC4FC7DEA5
:100470006C1B7D0B683E734068F3C114D104E1042A
:10048000F10471F7DF91CF91FF90EF90DF90CF9063
:1004900008952FB7F8946091800070918100809149
:1004A0008200909183002FBF08958F929F92AF9208
:1004B000BF92CF92DF92EF92FF92CF93DF934B01E7
:1004C0005C01D0E0C0E06A01550FEE08FF088091A2
:1004D0008A0090918B00C817D90750F4B501A40188
:1004E000CE01E0DDB2DEC701B601AADF2196EFCF73
:1004F000DF91CF91FF90EF90DF90CF90BF90AF90C2
:100500009F908F90089587FF07C0E82FEF778AE0CC
:100510008E1BE83008F08FEF90E0FC01EA5BFF4FA4
:100520003491FC01E65CFF4F2491FC01E25DFF4F3A
:10053000E491EE23B9F0332329F03130A1F480B7F0
:100540008F7780BFF0E0EE0FFF1FE85DFF4FA591B2
:10055000B4918FB7611117C0F894EC9120952E23B8
:100560002C938FBF0895323019F480B78F7DE9CF77
:10057000333021F48FB58F778FBDE4CF343011F74E
:100580008FB58F7DF9CFF894EC912E2BE9CFCF93D7
:10059000DF9387FF07C0E82FEF778AE08E1BE830F4
:1005A00008F08FEF90E0FC01E65CFF4F2491825D44
:1005B0009F4FFC0184918823D1F090E0880F991F10
:1005C000FC01EE5DFF4FA591B491FC01E85DFF4F8A
:1005D000C591D49161110EC09FB7F8948C91E22F10
:1005E000E0958E238C932881E223E8839FBFDF91DF
:1005F000CF9108958FB7F894EC91E22BEC938FBFD5
:10060000F6CFCF938091790090917A000097C9F04E
:10061000019729F1C09179008AE090E078D3C8175A
:1006200021F06C2F8AE090E07AD3C0917A008BE0C1
:1006300090E06DD3C817E1F06C2F8BE090E0CF9184
:100640006EC34AE050E06FEF70E080E090E02DDF95
:1006500060E089E058DF61E08AE055DFDBCF4AE007
:1006600050E060E070E08FEF90E01FDF61E0F1CFDD
:10067000CF910895CF93DF9361E087E088DF60E05A
:1006800087E041DFC3E0D0E041E050E06FEF7FEF73
:100690008FEF90E00ADF6AE070E080E090E0D0DE6B
:1006A00041E050E060E070E0CB01FFDE6AE070E026
:1006B00080E090E0C5DE219739F761E087E023DF35
:1006C00060E087E064DFE5DE60937B0070937C0090
:1006D00080937D0090937E00DF91CF9192CF1F9207
:1006E0000F920FB60F9211242F933F938F939F93E6
:1006F000AF93BF938091800090918100A091820080
:10070000B091830030917F0026E0230F2D3768F1F0
:1007100029E8230F0396A11DB11D20937F0080932C
:10072000800090938100A0938200B0938300809119
:10073000840090918500A0918600B0918700019679
:10074000A11DB11D8093840090938500A093860025
:10075000B0938700BF91AF919F918F913F912F915F
:100760000F900FBE0F901F9018950296A11DB11DFE
:10077000D4CF83E080BF83BF789499B7916099BF4D
:1007800091E09FBD8EBD86E886B981E88FBD89E086
:100790008EBD8FE790E09BBD8ABD61E089E0F7DE0A
:1007A00061E08AE0F4DE60E088E0F1DE60E087E0AE
:1007B000EEDE80918E0090918F0097FD06C061E083
:1007C000E6DE60E080918E009EDE81E0809389000D
:1007D0003CDD60919000633311F1C0919100D091A4
:1007E0009200615030E020E029F070E08FEF92E35A
:1007F000B5D29B01FE0140918C0050918D00CF013C
:100800008C1B9D0B8417950738F4808190E0B9010B
:1008100094D290833196EFCF83E3809390008AE067
:1008200090E075D2809379008BE090E070D2809355
:100830007A008091790090917A00049720F01092CC
:100840007A0010927900DDDE15DF82E0282E312C4F
:10085000C12CDD24DA94ED2CF12C812C912C540147
:10086000AA9440907400509075006090760070904B
:100870007700CA99BCC16AE070E080E090E0E0DDFA
:1008800008DE64197509860997096132734081058C
:100890009105E0F0FEDD6419750986099709683E47
:1008A00073408105910590F441E050E06FEF7FEFD8
:1008B0008FEF90E0FADD64E670E080E090E0C0DD6C
:1008C00041E050E060E070E0CB01EFDDE2DD641973
:1008D000750986099709613D77408105910508F200
:1008E000D8DD00917B0010917C0020917D0030913B
:1008F0007E00601B710B820B930B693E7340810578
:100900009105D0F0C6DD60937B0070937C008093EE
:100910007D0090937E008091790090917A000196FD
:100920008230910509F45CC090937A00809379003D
:1009300068DE81E080937800ACDD00917B0010914F
:100940007C0020917D0030917E00601B710B820B3A
:10095000930B613777418105910508F442C185E821
:1009600046DC2091600030916100B901E6D181152B
:1009700044E09407D4F5909373008093720084E868
:1009800036DC2091600030916100B901D6D181152B
:10099000A4E09A07BCF59093710080937000D0E0BA
:1009A000C0E080918A0090918B00C817D90708F0A9
:1009B00056C0CA30D10598F5C630D10508F046C0FA
:1009C000C430D10578F580E09FEFA0E0B0E08093DF
:1009D0006C0090936D00A0936E00B0936F002AC0DE
:1009E00010927A0010927900A3CF8FEF93E090934A
:1009F000730080937200215031093093610020937D
:100A00006000BDCF8FEF93E09093710080937000F2
:100A1000215031093093610020936000C0CFCC3069
:100A2000D10588F6C0926C00D0926D00E0926E0005
:100A3000F0926F0040916C0050916D0060916E00DB
:100A400070916F00CE012EDB2196ABCF80926C00AF
:100A500090926D00A0926E00B0926F00EBCF8091EB
:100A600072009091730085369105DCF58D33910508
:100A70000CF05FC0853291050CF056C087319105AE
:100A80000CF04BC097FF44C08091700090917100B2
:100A9000853691050CF057C08D3391050CF07BC065
:100AA000853291050CF072C0873191050CF067C05A
:100AB00097FF60C0C0916A00D0916B00C730D1052C
:100AC0000CF073C0C830D10508F06FC080918A0067
:100AD00090918B00C817D90710F4CE015BDB2196EB
:100AE000F1CF8031A1E09A0744F4A4E0B0E0853A68
:100AF000910524F185E090E012C0813CB1E09B07B4
:100B0000DCF0811594400CF0BFCF87E090E007C087
:100B100010926B0010926A00B7CF81E090E0909342
:100B20006B0080936A00B0CF30926B0020926A0015
:100B3000ABCF83E090E0F3CFA6E0B0E0B0936B00E2
:100B4000A0936A00A1CF8031A1E09A0744F4A4E009
:100B5000B0E0853A910524F185E090E012C0813C37
:100B6000B1E09B07DCF0811594400CF0A3CF87E047
:100B700090E007C010926900109268009BCF81E05E
:100B800090E0909369008093680094CF3092690060
:100B9000209268008FCF83E090E0F3CFA6E0B0E032
:100BA000B0936900A093680085CFC0916800D09190
:100BB0006900C730D105A4F40FE010E00C1B1D0B39
:100BC000C830D10568F480918A0090918B00081795
:100BD000190710F4C801DEDA219601501109F0CF8F
:100BE00034DB6AE070E080E090E02ADC3ACE51DC51
:100BF0006419750986099709613273408105910569
:100C000018F081E08093780044DC60937400709366
:100C10007500809376009093770080917800882308
:100C200009F48ACE1092780025DD86CE10928900D4
:100C300010929000109297001092980010929900D4
:100C400010929A0081E08093960080939300109216
:100C5000940092E0909395008093880080E390E068
:100C600090938D0080938C0093D09093920080930A
:100C700091000097A9F120E3FC0111922A95E9F770
:100C800080E190E090938B0080938A0010928F0017
:100C900010928E0080918900882331F061E080E01D
:100CA00076DC60E080E02FDC88E390E090939C00AD
:100CB00080939B0081E080939D00EBDB6093740048
:100CC000709375008093760090937700E2DB6093D9
:100CD0007B0070937C0080937D0090937E0008954C
:100CE00010928D0010928C0010928B0010928A004E
:100CF000CDCF8091910090919200E6D080918E00AE
:100D000090918F0097FD02C060E041CC0895E19979
:100D1000FECF9FBB8EBBE09A99278DB30895262FF7
:100D2000E199FECF1CBA9FBB8EBB2DBB0FB6F894CA
:100D3000E29AE19A0FBE019608950024552704C057
:100D4000080E591F880F991F009729F0769567950F
:100D5000B8F37105B9F7802D952F0895AA1BBB1B19
:100D600051E107C0AA1FBB1FA617B70710F0A61BAB
:100D7000B70B881F991F5A95A9F780959095BC01CC
:100D8000CD010895EE0FFF1F0590F491E02D099419
:100D90000F931F93CF93DF938230910510F482E07D
:100DA00090E0E091A000F091A10030E020E0B0E000
:100DB000A0E0309799F42115310509F44AC0281BA9
:100DC000390B24303105D8F58A819B816115710575
:100DD00089F1FB0193838283FE0111C0408151811F
:100DE0000281138148175907E0F04817590799F411
:100DF000109761F012960C93129713961C933296EB
:100E0000CF01DF91CF911F910F9108950093A00022
:100E10001093A100F4CF2115310551F0421753076B
:100E200038F0A901DB019A01BD01DF01F801C1CF52
:100E3000EF01F9CF9093A1008093A000CDCFFE01E8
:100E4000E20FF31F81939193225031093983288354
:100E5000D7CF20919E0030919F00232B41F4209109
:100E600064003091650030939F0020939E00209194
:100E70006200309163002115310541F42DB73EB772
:100E80004091660050916700241B350BE0919E0055
:100E9000F0919F00E217F307A0F42E1B3F0B2817D9
:100EA000390778F0AC014E5F5F4F2417350748F0E3
:100EB0004E0F5F1F50939F0040939E00819391932C
:100EC0009FCFF0E0E0E09CCFCF93DF930097E9F075
:100ED000FC01329713821282A091A000B091A10070
:100EE000ED0130E020E01097A1F420813181820FE4
:100EF000931F20919E0030919F002817390709F019
:100F000061C0F0939F00E0939E00DF91CF91089520
:100F1000EA01CE17DF07E8F54A815B819E014115A2
:100F20005105B1F7E901FB83EA8349915991C40F57
:100F3000D51FEC17FD0761F4808191810296840F23
:100F4000951FE90199838883828193819B838A839A
:100F5000F0E0E0E012968D919C9113970097B9F51F
:100F60002D913C911197CD010296820F931F2091F4
:100F70009E0030919F002817390739F6309751F5B8
:100F80001092A1001092A000B0939F00A0939E0029
:100F9000BCCFD383C28340815181840F951FC81772
:100FA000D90761F44E5F5F4F88819981480F591FBF
:100FB000518340838A819B819383828321153105EC
:100FC00009F0B0CFF093A100E093A0009ECFFD0107
:100FD000DC01C0CF13821282D7CF10E0CBE2D0E089
:100FE00003C0FE01CFDE2196CC32D107D1F7F894B1
:020FF000FFCF31
:080FF20004000000A2008000D1
:00000001FF
